:10000000F01F0010ED030000E9030000E903000009
:10001000E9030000E9030000E9030000000000001C
:10002000000000000000000000000000E9030000E4
:10003000E903000000000000E90300002D040000B7
:10004000E5030000E5030000E5030000E503000010
:10005000E5030000E5030000E5030000E503000000
:10006000E5030000E5030000E5030000E5030000F0
:10007000E5030000E5030000E5030000E5030000E0
:10008000E5030000E5030000E5030000E5030000D0
:10009000E50300002D050000E5030000E503000076
:1000A000E5030000E5030000E5030000E5030000B0
:1000B000E5030000E5030000E5030000E5030000A0
:1000C00001700120704730B5002402E00570013452
:1000D00001301D5D002DF9D1121B03E001700134C8
:1000E0000130013A002AF9DC201C30BDF0B583B0A4
:1000F000061C01911F1C551E092B01D8002412E07B
:10010000181C0A2100F0A2FC0199031C2A1C301CB7
:10011000FFF7ECFF3618041C009608E00199FFF782
:10012000CFFF0134013DA0190090002DF6DC381CF2
:100130000A2100F0CFFC3031C9B20098FFF7C0FFB0
:1001400003B00019F0BDF0B585B00391D917029343
:100150005B184B40061C0193571E092B13D9029BB9
:1001600001980A21002B03DA00F070FC434202E000
:1001700000F06CFC031C301C03993A1CFFF7E3FFF2
:10018000041C351817E00299002900DA971E002494
:1001900004E0281C0399FFF793FF01343B1BA519CA
:1001A000002BF6DC029B002B05DA281C2D21FFF723
:1001B00087FF0135041901980A2100F08BFC3031CA
:1001C000281CC9B2FFF77CFF05B00019F0BDF0B5DF
:1001D00085B0551E0A9A03931309061C0F1C002BA9
:1001E00001D100240DE000932A1C039BFFF7EFFFD1
:1001F000041C301809E0181C391CFFF761FF01349A
:10020000013DA319181C002DF5DC0A9B0F21194094
:10021000092901D8303105E0039A002A01D037318D
:1002200000E05731FFF74CFF05B0601CF0BDF0B5A2
:1002300087B0041C0391002801D000210170002523
:100240006CE0561C252903D02170321C013405E0D6
:100250005178252904D121700232013401355DE045
:10026000302901D0202101E00136302132782D2AB9
:1002700000D10136002205E090008218520062444D
:10028000D2B20136307830277F423F18FFB2BC46E9
:10029000092FF1D95719BC46039FBC4501D97A1BD8
:1002A000D2B2692811D0692806D863282DD06428D5
:1002B0000BD0582806D11AE075280CD0782810D019
:1002C00073281CD001256D4238E01F1D201C1B68BF
:1002D000FFF739FF1EE01F1D201C1B68FFF706FFFC
:1002E00018E01F1D1B68201C0093002304E01F1D45
:1002F0001B68201C00930123FFF769FF0AE01F1D04
:10030000201C1B68FFF7DFFE04E01978201C1F1D6E
:10031000FFF7D6FE3B1C721C24182D180398117889
:10032000854201D200298CD1039A954202D2002342
:10033000237003E0013C00232370013D07B0281C1B
:10034000F0BD10B50C1C131C6421221CFFF76FFFBD
:1003500010BD08B500F0ECF808BD10B5041C02E0B3
:100360000134FFF7F6FF20780028F9D110BD000016
:10037000F0B5A3B019AC061C0F1C24220949201C9F
:1003800000F0B4FB6846311C3A1CFFF7DAFF632823
:1003900003DD201CFFF7E1FFFEE76846FFF7DDFF06
:1003A00023B0F0BDC40B00000FB400B583B004A9A6
:1003B00001C90191FFF7DCFF03B008BC04B0184786
:1003C00008B500F0ADF8E120400200F0CBF8044899
:1003D000FFF7EAFF00F072F900F01CFAFCE7C046F4
:1003E000E80B000000B5FEE700B5FEE708B50A4BD4
:1003F0000A4A03E0117801321970013308498B422F
:10040000F8D3084B02E000221A700133064A9342E7
:10041000F9D3FFF7D5FFFEE70000001076100000CB
:100420009404001094040010C004001000B50A4B9E
:100430001A6801321A60094B1A6801321A60196889
:10044000FA225200914206D900221A60044B8022FF
:1004500019684A401A6000BDB8040010BC040010BE
:10046000FC3F005000B51A4B20211A688A431A60DD
:10047000F93B0021FF3B1960012204331A60196027
:100480001A60144B1B68DA07FBD5134B23221A6042
:100490000F4B80211A688A431A60104B01221B6897
:1004A0001342FAD00E4B03211960043300211A6065
:1004B00019601A600B4B1A6801231A42FAD00A4AD3
:1004C00013600832116880235B020B43136000BD88
:1004D0003882044044800440088004400C8004407A
:1004E000708004407480044078800440074A084BC0
:1004F00003211A60074A00231360083A1160064A74
:100500001360064B80221A607047C046BF5D000032
:1005100014E000E018E000E00840044000800050D3
:1005200008B5FFF79FFFFFF7E1FF08BD7047000028
:1005300000B5034B1B689A06FBD5024B186000BD43
:100540001480004000800040024B186801231840CE
:100550007047C04614800040014B1868C0B2704715
:100560000080004070B5264A80239B03D367254B4B
:1005700007251A68061CAA431A601968012211434C
:10058000196004331968204CA94319601968114394
:1005900019601E49802308685B0103430B601C4BF4
:1005A0001C481A60832222601968203B1B6858434C
:1005B00000F04CFA311C000900F048FA164B020416
:1005C000120E1A60C0B2043B186003232360134B61
:1005D0001D600C331B68124B1A6860231340602B9C
:1005E000F9D101E00F4B1B680D4B1A680123134032
:1005F000F8D1094980220B600B4B1A6070BDC046D0
:1006000004E100E0A44004400C80004080800440ED
:1006100098800440006CDC020480004008800040A8
:1006200014800040008000403080004070B5174DBD
:100630001748291CFFF7B8FE291C1648FFF7B4FE1F
:10064000154C164E2B1C301C2168E268FFF7ACFEDF
:100650002B1C301C6169226AFFF7A6FE2B1C301C84
:10066000A16A626BFFF7A0FE2B1C301CE16BA26C31
:10067000FFF79AFE2B1C301C216DE26DFFF794FEF4
:10068000291C2A1C0648FFF78FFE70BDE60B0000F0
:10069000FA0B00003B0C000000000010600C000092
:1006A0006D0C000008B50348FFF77EFE0248FFF717
:1006B0007BFE08BDE60B0000AE0C000008B5034A47
:1006C000034B1A60FFF7EEFF08BDC046940400100C
:1006D000B4040010F0B5A1B02B49019000F038FA35
:1006E000002702900020284900F032FA7D1CAB0060
:1006F00002AAD0501E2D02D1244E002403E000286F
:10070000FAD02F1CEEE70298316800F0FAF90028C1
:100710002DD1022D16D102AB58681D4900F0F1F918
:1007200000280FD1A3001C19184B1A4DA400E4187F
:10073000E1682A1C18482B1CFFF736FE1748216970
:100740002A1C1BE0A3001C19104BA400E4182179FB
:100750008F4201D2124810E061798F4201D91148CD
:100760000BE0013DE8B2A36803A9984708E0013413
:100770001436052CC7D10C480199064AFFF714FE20
:10078000FFF790FF21B0F0BD680F000000000010DF
:10079000BA0C0000E60B0000BC0C0000680C000066
:1007A000C30C0000F00C00001D0D000038B5051C46
:1007B0000A2806D00D2804D0114C1248082D17D154
:1007C0000DE00F4C002223680F491A700F48FFF705
:1007D000EBFD0F4D281CFFF77DFF25600FE0082182
:1007E000FFF7E2FD23680A4A934208D9013B05E07E
:1007F000291CFFF7D9FD23681D700133236038BD24
:10080000B40400103C0D0000E60B0000CF0E000009
:100810009404001008B503E0FFF79EFEFFF7C6FF43
:10082000FFF792FE0028F7D108BD000010B50B4C71
:100830000B49231C0B4A0C48FFF7B6FDFA22231C78
:100840000A4952000A48FFF7AFFDE1220949520266
:10085000231C0948FFF7A8FD10BDC046E60B0000A9
:10086000890E0000006CDC02780E0000AC0E000067
:100870009B0E0000D20E0000C00E000008B5064A14
:10088000002804D009680548FFF78EFD03E00448FE
:10089000111CFFF789FD08BDE60B0000E10E00000A
:1008A000EC0E0000F0B589B00191364A02A90B1C8C
:1008B000041C61CA61C303CA03C3118819809278FA
:1008C0009A70002C4ED0201C00F025F902280ED979
:1008D000201C2D49022200F026F9002806D0201CF9
:1008E0002A49022200F01FF9002800D10234201CFE
:1008F0002749012200F017F9002801D001210BE05F
:1009000001342378002B06D02D2B04D10122013491
:100910000021524201E0002101221E4B94461E6834
:10092000002322E000290FD0821957784422051CA9
:10093000174209D0BA0700D5203D08A84519483DFF
:100940002A781B0113430FE082195278550705D509
:100950009A00D3185B003038C31805E00E480F49E1
:10096000FFF722FD00200AE0013420780028D9D1C9
:100970006246002900D15343019E0120336009B033
:10098000F0BDC046600E0000FB0E0000FE0E000031
:10099000010F000064000010030F0000E60B0000D0
:1009A00010B582B00C1C086801A9FFF77BFF002876
:1009B00011D0019B03229343606869460193FFF7BE
:1009C00071FF002807D0019B04481968FFF7ECFC71
:1009D000009A019B1A6002B010BDC0464E0F000085
:1009E00070B582B0061C0C1C0823086801A900938E
:1009F000FFF758FF002823D0019D03239D430F23B9
:100A000001951D4000D11025012E03D9606869466B
:100A1000FFF748FF009C019BA400E4180DE04B1B6E
:100A20001A0702D10748FFF7BFFC019B0648196867
:100A3000FFF7BAFC019B043301930199A142EED365
:100A400002B070BD600F00006A0F0000002934D0B2
:100A50000123002210B488422CD301242407A14290
:100A600004D2814202D209011B01F8E7E400A1424D
:100A700004D2814202D249005B00F8E7884201D3E8
:100A8000401A1A434C08A04202D3001B5C082243C0
:100A90008C08A04202D3001B9C082243CC08A04231
:100AA00002D3001BDC082243002803D01B0901D01D
:100AB0000909E3E7101C10BC7047002801D0002092
:100AC000C04307B4024802A14018029003BDC046CB
:100AD000190000000029F0D003B5FFF7B9FF0EBCE4
:100AE0004243891A1847C0467047C04610B582185D
:100AF000031C03E00C7801311C7001339342F9D3DD
:100B000010BD02780B7801300131002A01D09A42E1
:100B1000F7D0D01A70470022835C0132002BFBD142
:100B2000101C0138704710B5002A08D100200DE0D4
:100B3000013A002A07D0002B05D00130013104789A
:100B40000B78A342F4D000780B78C01A10BD0000D7
:100B500008B5034B1A6801235C3200F003F808BDA6
:100B600090040010F0B5002802D11068002827D0AA
:100B70000578441C0E1C08E0BD4206D1002B01D0B4
:100B8000201CF5E7146003701BE037780136002F56
:100B9000F2D1002D02D1156012E01C1C2678631CD6
:100BA0000D1C2F780135B74207D1002E01D100234B
:100BB00001E000212170136003E0002FF1D1ECE788
:100BC0000020F0BD737464696F2E633A20696E6310
:100BD0007265617365204D41585F535452494E47C9
:100BE0005F53495A450D0A005374617274696E6708
:100BF00020696E206D61696E0A00436F6D6D616ED4
:100C000064202020202020202020202020202020A0
:100C1000204465736372697074696F6E20202020B0
:100C200020206E3132333420746F20656E7465720B
:100C300020646563696D616C2573002D2D2D2D2D4C
:100C40002D2D20202020202020202020202020208A
:100C500020202D2D2D2D2D2D2D2D2D2D2D257300CD
:100C6000252D3230732020202573257300257343F2
:100C70006F6D6D616E6420706172616D6574657217
:100C8000732063616E206265207365656E206279F2
:100C900020656E746572696E673A203C636F6D6D96
:100CA000616E642D6E616D653E203F2573004C5072
:100CB0004331313134203E3E20003F0025732573FF
:100CC000257300546F6F2066657720617267756DBC
:100CD000656E747320746F20636F6D6D616E642038
:100CE0002825642065787065637465642925730020
:100CF000546F6F206D616E7920617267756D656EDE
:100D0000747320746F20636F6D6D616E642028258D
:100D100064206D6178696D756D29257300436F6D71
:100D20006D616E64206E6F74207265636F676E69AB
:100D30007A65643A202725732725730025630068A8
:100D4000656C7000446973706C6179732061206C0C
:100D5000697374206F6620616C6C20617661696CC8
:100D600061626C6520636F6D6D616E6473002768EE
:100D7000656C702720686173206E6F2070617261EE
:100D80006D65746572730068656C6C6F004469739F
:100D9000706C617973202748656C6C6F20576F7297
:100DA0006C642127002768656C6C6F205B3C6E616A
:100DB0006D653E5D27006D6400446973706C6179F8
:100DC00073204D656D6F727900276D6427205B611C
:100DD0006464726573735D205B636F756E745D0030
:100DE0006D770057726974657320746F204D656D5F
:100DF0006F727900276D7727205B61646472657379
:100E0000735D205B646174615D00737973696E6604
:100E10006F00446973706C617973206375727265D9
:100E20006E742073797374656D20636F6E66696785
:100E300075726174696F6E2073657474696E67731F
:100E40000027737973696E666F2720686173206E5F
:100E50006F20706172616D657465727300000000CF
:100E600000010203040506070809FFFFFFFFFFFF5B
:100E7000FF0A0B0C0D0E0F00252D333073203A2086
:100E8000256420487A20257300436F7265205379CA
:100E90007374656D20436C6F636B00252D33307365
:100EA000203A202564206D532025730053797374F4
:100EB00069636B2054696D65722044656C617900CB
:100EC000252D333073203A202564204250532025AD
:100ED000730055415254204261756420526174651B
:100EE0000048656C6C6F20257325730048656C6C39
:100EF0006F20576F726C6421257300307800305872
:100F0000006E004D616C666F726D6564206E756D6C
:100F10006265722E204D757374206265206465636E
:100F2000696D616C206E756D6265722C206F722028
:100F30006865782076616C7565207072656365659B
:100F400064656420627920273078272573000A447D
:100F500061746120776173203078253038780A0019
:100F60000A3078253038783A20002530387820004B
:100F70000020202020202020202028282828282069
:100F80002020202020202020202020202020202061
:100F900020881010101010101010101010101010C9
:100FA00010040404040404040404041010101010B9
:100FB0001010414141414141010101010101010183
:100FC00001010101010101010101010110101010D5
:100FD0001010424242424242020202020202020255
:100FE00002020202020202020202020210101010A9
:100FF00020000000000000000000000000000000D1
:1010000000000000000000000000000000000000E0
:1010100000000000000000000000000000000000D0
:1010200000000000000000000000000000000000C0
:1010300000000000000000000000000000000000B0
:1010400000000000000000000000000000000000A0
:101050000000000000000000000000000000000090
:101060000000000000000000000000000000000080
:0610700000000000430037
:101076003F0D0000000000002D060000440D00009A
:101086006E0D0000870D0000000100007D080000C5
:101096008D0D0000A50D0000B60D00000102000038
:1010A600E1090000B90D0000C90D0000E00D0000C7
:1010B60002020000A1090000E30D0000F40D00008B
:1010C6000A0E0000000000002D080000120E0000AD
:1010D600410E0000700F00000000000054030010D5
:1010E600BC030010240400100000000000000000F3
:1010F60000000000000000000000000000000000EA
:101106000000000000000000000000007410000055
:1011160000000000000000000000000000000000C9
:1011260000000000000000000000000000000000B9
:1011360000000000000000000000000000000000A9
:101146000000000000000000000000000000000099
:101156000000000000000000000000000000000089
:101166000000000000000000000000000000000079
:101176000000000000000000000000000000000069
:1011860001000000000000000E33CDAB34126DE606
:10119600ECDE05000B00000000000000000000006F
:1011A6000000000000000000000000000000000039
:1011B6000000000000000000000000000000000029
:1011C6000000000000000000000000000000000019
:1011D6000000000000000000000000000000000009
:041506006800001069
:04000003000003ED09
:00000001FF
